S00E00004453333233312E73726563B6
S113000071C000008EC000008CC000008AC00000D7
S113001088C0000086C0000084C0000082C00000C8
S113002080C000007EC000007CC000007AC00000D8
S113003078C0000076C0000074C0000072C00000E8
S113004070C000006EC000006CC000006AC00000F8
S113005068C0000066C0000064C0000062C0000008
S113006060C000005EC000005CC000005AC0000018
S113007058C0000056C0000054C0000052C0000028
S113008050C000004EC000004CC000004AC0000038
S113009048C0000046C0000044C0000042C0000048
S11300A040C000003EC000003CC000003AC0000058
S11300B038C0000036C0000034C0000032C0000068
S11300C030C000002EC000002CC000002AC0000078
S11300D028C0000026C0000024C0000022C0000088
S11300E020C0000011241FBECFEFD1E2DEBFCDBF80
S11300F000E00CBF12E0A0E0B2E0EEE7F5E000E0C3
S11301000BBF02C007900D92A231B107D9F722E0CC
S1130110A2E1B2E001C01D92AB35B207E1F7BBD159
S11301202CC26ECF5FD067D080ED77D08EE075D0D3
S113013080E073D069C00895CF93DF93EC015BD066
S113014080ED6BD080E069D0888167D0898165D0EB
S11301508A8163D08B8161D08C815FD08D815DD0A9
S11301608E815BD051D0DF91CF910895CF93DF93EF
S1130170EC0141D080ED51D080E04FD045D03BD050
S113018081ED4BD05CD088835AD0898358D08A8340
S113019056D08B8354D08C8352D08D835BD08E8386
S11301A033D0DF91CF9108959DEC899F912D112437
S11301B0969596959695392F330F232F220F220F5C
S11301C0230F821B20E1929F800D11240895982F04
S11301D092959F70990F292F220F220F920F8F70E3
S11301E0890F08951092B90080E28093B80084EAE0
S11301F08093BC00089584EA8093BC00ECEBF0E0AB
S113020080818823ECF7089584E98093BC00ECEBAB
S1130210F0E0808184FDFDCF08958093BB0084E8E5
S11302208093BC00ECEBF0E080818823ECF79091A4
S1130230B900987F81E0983209F480E0089584EC55
S11302408093BC00ECEBF0E080818823ECF7809194
S1130250BB00089584E88093BC00ECEBF0E080815F
S11302608823ECF78091BB000895CF93DF93EC01D2
S1130270AC0120E030E0E0ECF0E066EC70E00AC0B5
S1130280908195FFFDCFDA018D91AD01DB018C9357
S11302902F5F3F4FDE010D900020E9F71197AC1B53
S11302A0BD0B2A173B0760F3DF91CF91089510929D
S11302B0C50087E68093C400E2ECF0E080818660AC
S11302C08083E1ECF0E08081886980830895CF9396
S11302D0DF93FC012081222369F0DC011196E0EC1C
S11302E0F0E0C6ECD0E0908195FFFDCF28832D91FE
S11302F02111F9CFE0ECF0E0808185FFFDCF109271
S1130300C600DF91CF910895EF92FF920F931F9350
S1130310CF93DF93CDB7DEB762970FB6F894DEBF05
S11303200FBECDBF84E592E021DF04E512E0F801C1
S113033082814DDF4AE050E0BE016F5F7F4F90E065
S1130340DFD0F801818143DF4AE050E0BE016C5FF9
S11303507F4F90E0D5D0F801808139DF4AE050E04A
S1130360BE01695F7F4F90E0CBD0F80184812FDF1D
S11303704AE050E0BE01605F7F4F90E0C1D0F801D9
S1130380858125DF4AE050E0BE01635F7F4F90E046
S1130390B7D0F80186811BDF4AE050E0BE01665FFA
S11303A07F4F90E0ADD004E112E0D8010D90002021
S11303B0E9F7119787E0E0E0F2E001900D928A9569
S11303C0E1F7BE016F5F7F4FC8018FD0F801019044
S11303D00020E9F731970F2EFAE3EF2EF12CF02DE0
S11303E0F182E082BE016C5F7F4FC8017ED0F801CC
S11303F001900020E9F73197F182E082BE01695F44
S11304007F4FC80172D0D8010D900020E9F71197F1
S113041088E0E7E0F2E001900D928A95E1F7BE01F1
S1130420605F7F4FC80161D0F80101900020E9F7B7
S113043031978FE290E091838083BE01635F7F4FA9
S1130440C80153D0F80101900020E9F731978FE2F9
S113045092E39183808380E390E093838283BE015F
S1130460665F7F4FC80141D0C801FFDE8FE092E094
S11304702EDF80E4F80111928A95E9F762960FB6AF
S1130480F894DEBF0FBECDBFDF91CF911F910F91C6
S1130490FF90EF900895CF93DF93CDB7DEB7279702
S11304A00FB6F894DEBF0FBECDBF01DF9BDE3ADE90
S11304B088E07ADE8B8387E377DE8A838AE074DEE2
S11304C089838DE171DE8D838AE06EDE8E8384E123
S11304D06BDE8F8383E08C83CE0101962DDE14DFE7
S11304E08AE68A95F1F700C0FACFFB01DC010D9092
S11304F00020E9F7119701900D920020E1F708958B
S11305004532510518F4423008F004C0FB01108252
S1130510CB010895BB274A3031F4992322F4BDE27C
S1130520909581959F4F01C0BB27FB015527AA27B2
S1130530880F991FAA1FA41710F0A41B839550516C
S1130540B9F7A05DAA3308F0A95DA193009779F7E4
S1130550B111B1931192CB0100C0DC01FC01672FF2
S113056071917723E1F7329704C07C916D93708386
S11105706291AE17BF07C8F30895F894FFCF49
S113057E54696D653A200020446174653A20000A7E
S105058E000067
S9030000FC
